:100B91005561727420522F532053797374656D20FF
:100BA10000202053342D3E52202053352D3E53201A
:100BB10020005220636861725B205D202721276538
:100BC1006E640020202020202020202020202020B2
:100BD100202020005320636861725B325D27302D35
:100BE1003E39392700526563656976656420646121
:050BF10074613A2020B0
:100D3600012500020E00000228000001090001083A
:010D460000AC
:10093C00120C337BFF7A0B7991E4F5307531107F13
:10094C0080120C607BFF7A0B79A2E4F530753110C4
:10095C007FC0120C60120D20E4F509C2A6C2A720BC
:10096C00B21530B3127F027E00120CB020B23030C0
:10097C00B32D750901802830B21520B3127F027E89
:10098C0000120CB030B21820B31575090280107F1C
:10099C00027E00120CB020B20620B303E4F509E588
:1009AC000924FE603C04706A7BFF7A0B79B3E4F592
:1009BC00307531107F80120C607BFF7A0B79C4E4A8
:1009CC00F5307531107FC0120C607B007A00791AFB
:1009DC00E4F530850D317FC0120C607F647E0080A1
:1009EC002B7BFF7A0B79D5E4F5307531107F8012B3
:1009FC000C607BFF7A0B79C4E4F5307531107FC045
:100A0C00120C60120A43E4F5097F0AFE120CB002C4
:100A1C00096B7BFF7A0B7991E4F5307531107F808F
:100A2C00120C607BFF7A0B79A2E4F5307531107FE4
:070A3C00C0120C6002096BFF
:100D2000758920758DFD758BFDD28ED29CC29FD2A8
:060D30009ED2AFD2AC22FE
:03002300020BF6D7
:0B0BF600C0E0C0D075D000C000C007F8
:100C0100309826C298AF99EF64216011741A250FAC
:100C1100F8A607050FE50F7010050E800C850E0C68
:090C2100850F0D750E00750F0022
:090C2A00D007D000D0D0D0E03298
:100C8D008B2C8A2D892EAB2CAA2DA92E1208F6FF9E
:100C9D006010120D597401252EF52EE4352DF52D0C
:030CAD0080E422BE
:080D59008F993099FDC2992227
:100A4300782A7C007D007BFF7A0B79F47E007F029D
:100A53001208D07F647E00120CB00508E508C39429
:100A6300644003E4F508E508C39400405BE508949B
:100A7300645055E508C394004010E508D394095029
:100A830009752A20E5082430F52BE508C3940A40AC
:100A93001DE508D394635016E50875F00A842430E5
:100AA300F52AE50875F00A84E5F02430F52B7B0080
:100AB3007A00792A120C8D7B007A00792AE4F530CA
:100AC3007531027FC6120C6020B28830B3857F0275
:100AD3007E00120CB020B20730B304750901223036
:100AE300B203020A5620B303020A567F027E0012A3
:100AF3000CB030B203020A5630B303020A56E4F5CF
:010B030009E8
:010B040022CE
:0F0CCE00C2A57F0A7E00120CDDD2A77F0A7E002E
:0E0CDD00EF1FAC0670011E4C60030080F32276
:100CB000EF1FAA0670011E4A6013E4FCFDC3ED9409
:0D0CC00058EC940250EA0DBD00010C80F0CC
:010CCD002204
:090D06007F057E00120CB07F385D
:100D0F00AD07C2A7C2A6120CCE8D80120CD9C2A7F6
:010D1F0022B1
:100D4800AD07C2A7D2A6120CCE8D80120CD9C2A7AD
:010D58002278
:030CEB00120D0FD8
:100CEE007580FFC2A7C2A6D2A5120CD0AD80120C81
:080CFE00D9C2A7ED20E7EC22AA
:100C33007F0F120D08120D06120D06120CEE7F38EF
:100C4300120CEB7F08120CEB7F01120D0F120CEE4E
:0D0C53007F06120D0F120CEE7F0C020D0F2C
:020C60008F2CD7
:100C6200120CEEAF2C120D0FE4F532E532C39531C2
:100C72005018120CEEE5322530F582E433F583127A
:0A0C8200090FFF120D48053280E152
:010C8C002245
:03000000020B05EB
:0C0B0500787FE4F6D8FD758132020B4CBD
:10080000E709F608DFFA8046E709F208DFFA803EDA
:1008100088828C83E709F0A3DFFA8032E309F608C7
:10082000DFFA8078E309F208DFFA807088828C832F
:10083000E309F0A3DFFA806489828A83E0A3F608E3
:10084000DFFA805889828A83E0A3F208DFFA804CBD
:1008500080D280FA80C680D4806980F28033801094
:1008600080A680EA809A80A880DA80E280CA8033FD
:1008700089828A83ECFAE493A3C8C582C8CCC58375
:10088000CCF0A3C8C582C8CCC583CCDFE9DEE78045
:100890000D89828A83E493A3F608DFF9ECFAA9F0C4
:1008A000EDFB2289828A83ECFAE0A3C8C582C8CC1A
:1008B000C583CCF0A3C8C582C8CCC583CCDFEADE33
:1008C000E880DB89828A83E493A3F208DFF980CC95
:1008D00088F0EF60010E4E60C388F0ED2402B4048E
:1008E0000050B9F582EB2402B4040050AF23234535
:0608F00082239008507302
:1008F600BB010689828A83E0225002E722BBFE0200
:09090600E32289828A83E4932232
:10090F00BB010CE58229F582E5833AF583E022509D
:10091F0006E92582F8E622BBFE06E92582F8E222E7
:0D092F00E58229F582E5833AF583E4932201
:100B110002093CE493A3F8E493A34003F68001F2B5
:100B210008DFF48029E493A3F85407240CC8C333E5
:100B3100C4540F4420C8834004F456800146F6DFB4
:100B4100E4800B0102040810204080900D36E47E01
:100B5100019360BCA3FF543F30E509541FFEE493A9
:100B6100A360010ECF54C025E060A840B8E493A370
:100B7100FAE493A3F8E493A3C8C582C8CAC583CA9B
:100B8100F0A3C8C582C8CAC583CADFE9DEE780BE53
:010D470000AB
:00000001FF
